:020000022000DC
:100000000D94F4000D940D010D940D010D940D014E
:100010000D940D010D940D010D940D010D940D0124
:100020000D940D010D940D010D940D010D940D0114
:100030000D940D010D940D010D940D010D940D0104
:100040000D940D010D940D010D940D010D940D01F4
:100050000D940D010D940D010D940D010D940D01E4
:100060000D940D010D940D010D940D010D940D01D4
:100070000D940D010D940D010D940D010D940D01C4
:100080000D940D010D940D010D940D010D940D01B4
:100090000D940D010D940D010D940D010D940D01A4
:1000A0000D940D010D940D010D940D010D940D0194
:1000B0000D940D010D940D010D940D010D940D0184
:1000C0000D940D010D940D010D940D010D940D0174
:1000D0000D940D010D940D010D940D010D940D0164
:1000E0000D940D010D940D010D940D010D940D0154
:1000F0000D940D010D940D010D940D010D940D0144
:100100000D940D010D940D010D940D010D940D0133
:100110000D940D010D940D010D940D010D940D0123
:100120000D940D010D940D010D940D010D940D0113
:100130000D940D010D940D010D940D010D940D0103
:100140000D940D010D940D010D940D010D940D01F3
:100150000D940D010D940D010D940D010D940D01E3
:100160000D940D010D940D010D940D010D940D01D3
:100170000D940D010D940D010D940D010D940D01C3
:100180000D940D010D940D010D940D010D940D01B3
:100190000D940D010D940D010D940D010D940D01A3
:1001A0000D940D010D940D010D940D010D940D0193
:1001B0000D940D010D940D010D940D010D940D0183
:1001C0000D940D010D940D010D940D010D940D0173
:1001D0000D940D010D940D010D940D010D940D0163
:1001E0000D940D010D940D0111241FBECFEFDFE31F
:1001F000DEBFCDBF01E00CBF10E2A0E0B0E2EAE05C
:10020000FCE002E00BBF02C007900D92A030B107E6
:10021000D9F70F9457030D9403060D940000982FFF
:10022000E0ECF1E08091CF0187FDFACF262F30E09E
:100230002F713070892F90E045E0880F991F4A9503
:10024000E1F7282B392B2093C001832F8F718183F5
:10025000128286E08287EF93FF930F932F93EBEC4C
:10026000F1E008ED21E004BF20832F910F91FF9171
:10027000EF918091C40108958091CF0187FDFCCF5B
:1002800008958091CF0187FDFCCF8091CF0181FF40
:1002900012C086E3E0ECF1E08287EF93FF930F93C7
:1002A0002F93EBECF1E008ED21E004BF20832F91C8
:1002B0000F91FF91EF910895DF92EF92FF920F93CC
:1002C0001F93E82E062FD42E0F944101E0ECF1E0AD
:1002D00083E3828710E00F711070FF2455E0EE0C6D
:1002E000FF1C5A95E1F70E291F290083812F8F717A
:1002F00081831282D48285E38287EF93FF930F93E9
:100300002F93EBECF1E008ED21E004BF20832F9167
:100310000F91FF91EF911F910F91FF90EF90DF9060
:100320000895982FE0ECF1E08091CF0187FDFACF9E
:1003300083E382879093C0011182128264830895BF
:10034000DC01E0ECF1E08091CF0187FDFACF83E39F
:1003500082871182128290E09093C0018D918483F4
:100360009F5F9032C9F70895982FE0ECF1E08091FB
:10037000CF0187FDFACF892F90E065E0880F991FA4
:100380006A95E1F78093C001892F8F718183128272
:1003900085E38287EF93FF930F932F93EBECF1E0CC
:1003A00008ED21E004BF20832F910F91FF91EF9181
:1003B0000895982FE0ECF1E08091CF0187FDFACF0E
:1003C000892F90E075E0880F991F7A95E1F7809367
:1003D000C001892F8F718183128282E38287EF931C
:1003E000FF930F932F93EBECF1E008ED21E004BFB6
:1003F00020832F910F91FF91EF910895982FE0ECBA
:10040000F1E08091CF0187FDFACF892F90E0A5E040
:10041000880F991FAA95E1F78093C001892F8F71EA
:100420008183128284E38287EF93FF930F932F934C
:10043000EBECF1E008ED21E004BF20832F910F9158
:10044000FF91EF9108958091CF0187FDFCCF80E36C
:10045000E0ECF1E08287EF93FF930F932F93EBECA7
:10046000F1E008ED21E004BF20832F910F91FF916F
:10047000EF9108950F931F93CF93DF938C01EA01BF
:10048000653441F58091CC01877FE0ECF1E0848711
:100490000F94410188819981AA81BB81682F6F7176
:1004A00045E0B695A795979587954A95D1F70F940E
:1004B0000F010F94530588819981AA81BB81019610
:1004C000A11DB11D88839983AA83BB83015010406D
:1004D00009F738C06634B1F588819981AA81BB815A
:1004E000880F991FAA1FBB1F88839983AA83BB8388
:1004F000688179818A819B810F946E050F945305E1
:10050000688179818A819B816F5F7F4F8F4F9F4F79
:100510000F946E050F94530588819981AA81BB8140
:100520000296A11DB11D88839983AA83BB830250C3
:100530001040F1F6B695A79597958795888399838E
:10054000AA83BB83DF91CF911F910F9108956F9282
:100550007F928F929F92AF92BF92CF92DF92EF9253
:10056000FF920F931F93DF93CF93CDB7DEB7C050A9
:10057000D240CDBFDEBF3C014A016534E9F50F949E
:1005800041018091CC01877FE0ECF1E084877E011E
:100590000894E11CF11C67015701A60CB71C05C0AB
:1005A0000F946005F60181936F01CA14DB04C1F753
:1005B0001FC0F40180819181A281B381682F6F7186
:1005C00075E0B695A795979587957A95D1F7F70138
:1005D00041917F010F945C01F40180819181A2819E
:1005E000B3810196A11DB11D80839183A283B38342
:1005F000EC14FD04F1F647C0663411F08FE344C0FB
:10060000FA01C080D180E280F380CC0CDD1CEE1CAE
:10061000FF1CC082D182E282F3820F946005082F12
:1006200010E00F946005B82EAA240A291B29F401B2
:1006300080819181B8010F94A305F401808191819B
:10064000A281B3810296A11DB11D80839183A283F3
:10065000B3838EEF9FEF680E791E61147104E9F683
:10066000C701B6010F94B9050F94E605F401808126
:100670009181A281B381B695A7959795879580833F
:100680009183A283B3838DE0C050DE4FCDBFDEBF28
:10069000CF91DF911F910F91FF90EF90DF90CF905E
:1006A000BF90AF909F908F907F906F9008952F9202
:1006B0003F924F925F926F927F928F929F92AF92F2
:1006C000BF92CF92DF92EF92FF920F931F93DF932F
:1006D000CF93CDB7DEB72597CDBFDEBF1A821B8281
:1006E0001C821D8219820F9441018091CC01877F69
:1006F000E0ECF1E084870F944505A0EAB6E0809134
:10070000A00681608093A0068091A4068160149663
:100710008C931497E0E0F8E087E08093000880E392
:1007200095E786A397A310A211A28091A80690E056
:100730008C010071107084FF87C154961C92CC24E8
:10074000DD2482E0282E312C2C0E3D1E0F946005F6
:100750008983809120089091210880529E4410F056
:1007600085E48983109220081092210810922608AF
:1007700010922708109200089981913611F489E5AA
:1007800060C1913479F40F946005182F0F946005BF
:10079000B12EAA2490E08A299B29AA2797FDA0952B
:1007A000BA2F9CC0953649F51A821B821C821D8285
:1007B00014C00F94E6056A817B818C819D810F9422
:1007C0009D058A819B81AC81BD8180509E4FAF4F3A
:1007D000BF4F8A839B83AC83BD838A819B81AC811D
:1007E000BD8180509040A240B04018F3CE010196E8
:1007F0000F94A0010F942302F7C0923629F489E5E3
:100800000F94530582E0E4C09234A1F40F94600584
:10081000182F0F946005912E8824C82EDD24C82837
:10082000D9280F946005682F8983C601A1010F9410
:10083000A70207C19736A1F40F946005182F0F94F3
:100840006005712E6624C82EDD24C628D7280F9493
:100850006005682F8983C601A1010F943A0276CF03
:100860009235E9F40F94E6056A817B818C819D8144
:10087000660F771F881F991F6F5F7F4F8F4F9F4FA6
:100880000F946E050F9453056A817B818C819D8145
:10089000660F771F881F991F0F946E0564C09336EB
:1008A00029F40F946005C82EDD249EC09334D9F43A
:1008B0000F946005582E4424C428D5280F94E605CB
:1008C0008A819B81880F991FB6010F94A3058A81A5
:1008D0009B81AC81BD810196A11DB11D8A839B8343
:1008E000AC83BD8381C09D36B9F48A819B81AC8184
:1008F000BD8180509040A140B04008F0A1C00F944D
:10090000E6056A817B818C819D81660F771F881F38
:10091000991F0F94B90568C09434A1F4EA80FB8054
:100920000C811D810F946005482F6E2D6F71F5E0CD
:1009300016950795F794E794FA95D1F78E2D0F94B5
:100940005C0113C09436E9F48A819B81AC81BD813E
:10095000682F6F71E5E0B695A79597958795EA950D
:10096000D1F70F940F010F9453058A819B81AC81BD
:10097000BD810196A11DB11D8A839B83AC83BD837C
:10098000E5CE9C3639F40F94E6050F9460050F947C
:100990008A052AC0903541F19C3431F1953489F4AF
:1009A0000F94E6050F94DF058DE00F945305F8943E
:1009B00088ED84BF1092A2001CBEE0E0F0E0199523
:1009C000C5CE903711F483E53CC0943729F48AEF03
:1009D0000F94530580E035C0892F8857823010F07E
:1009E000943521F40F9460058DE02BC09335A1F46C
:1009F00081E40F94530586E50F94530582E50F9427
:100A0000530582E40F9453058FE40F9453058FE44C
:100A10000F94530584E515C0963529F481E30F94AE
:100A2000530586E30EC0933741F482E40F945305D7
:100A300087E90F9453058EE104C09B3109F486CEFB
:100A40008FE30F94530582CE54961C920F94E605C3
:100A50000F94DF051CBEF801199580E090E0259603
:100A6000CDBFDEBFCF91DF911F910F91FF90EF902F
:100A7000DF90CF90BF90AF909F908F907F906F90BE
:100A80005F904F903F902F900895E0EAF6E08181CB
:100A900088608183E0EAFBE083E1868380EC8783E2
:100AA00088E1848308958093A00B8091A10B86FF39
:100AB000FCCF8091A10B8064E0EAFBE08183089584
:100AC0008091A10B87FD07C080912008909121089B
:100AD00080529E44A8F38091A00B08953BB78BBF32
:100AE000FB0186913BBF08953BB78BBFFB0187910C
:100AF00096913BBF089542E081C041E07FC0809362
:100B0000C00188278093C1018093C20147E066D06D
:100B1000CB0108958093C40148E060C08091D0016A
:100B200008953BB748E10D9418063BB74AE10D9490
:100B300018063BB740E20D9418063BB78BBFCB01BC
:100B400042E20D9418063BB70B0143E20D941806E0
:100B50003BB76BBFFA0119BEDC0140E04093CA010C
:100B600050E0879197918D939D935A95D1F73BBF14
:100B700008953BB78BBFCB0144E20D9418063BB7F9
:100B80008BBFCB0145E20D9418063BB746E20D94AE
:100B900018063BB78BBFCB014AE20D9418063BB752
:100BA0008BBFCB014CE20D9418063BB78BBFCB013A
:100BB0004DE20D94180648E311C049E30FC028ED3B
:100BC0002093340021E02093CC0108952091CF019F
:100BD00027FDFCCF22272093CA0108954093CA0124
:100BE00028ED31E0209334003093CB016091C401B3
:100BF0007091C5018091C60199270895FC01409329
:0A0C0000CA0184910895F894FFCF13
:100C0A00EE27FF2719BEDC0143E24093CA0150E8F0
:100C1A002DE90D901D9020933400E89532965A954F
:100C2A00C1F711240895FC014093CA012DE92093CC
:0A0C3A003400E89511243BBF089533
:0400000320000000D9
:00000001FF
